{
	"contracts/RegistrarController.sol": {
		"RegistrarController": {
			"abi": [
				{
					"inputs": [
						{
							"internalType": "address",
							"name": "_owner",
							"type": "address"
						},
						{
							"internalType": "uint256",
							"name": "_domainPrice",
							"type": "uint256"
						}
					],
					"stateMutability": "nonpayable",
					"type": "constructor"
				},
				{
					"inputs": [
						{
							"internalType": "address",
							"name": "owner",
							"type": "address"
						}
					],
					"name": "OwnableInvalidOwner",
					"type": "error"
				},
				{
					"inputs": [
						{
							"internalType": "address",
							"name": "account",
							"type": "address"
						}
					],
					"name": "OwnableUnauthorizedAccount",
					"type": "error"
				},
				{
					"anonymous": false,
					"inputs": [
						{
							"indexed": true,
							"internalType": "address",
							"name": "owner",
							"type": "address"
						},
						{
							"indexed": true,
							"internalType": "string",
							"name": "domainName",
							"type": "string"
						},
						{
							"indexed": true,
							"internalType": "uint256",
							"name": "timestamp",
							"type": "uint256"
						}
					],
					"name": "DomainPurchase",
					"type": "event"
				},
				{
					"anonymous": false,
					"inputs": [
						{
							"indexed": true,
							"internalType": "address",
							"name": "to",
							"type": "address"
						},
						{
							"indexed": true,
							"internalType": "uint256",
							"name": "value",
							"type": "uint256"
						}
					],
					"name": "EtherWithdraw",
					"type": "event"
				},
				{
					"anonymous": false,
					"inputs": [
						{
							"indexed": true,
							"internalType": "address",
							"name": "previousOwner",
							"type": "address"
						},
						{
							"indexed": true,
							"internalType": "address",
							"name": "newOwner",
							"type": "address"
						}
					],
					"name": "OwnershipTransferred",
					"type": "event"
				},
				{
					"inputs": [],
					"name": "domainPrice",
					"outputs": [
						{
							"internalType": "uint256",
							"name": "",
							"type": "uint256"
						}
					],
					"stateMutability": "view",
					"type": "function"
				},
				{
					"inputs": [
						{
							"internalType": "string",
							"name": "domainName",
							"type": "string"
						}
					],
					"name": "getDomainController",
					"outputs": [
						{
							"internalType": "address",
							"name": "",
							"type": "address"
						}
					],
					"stateMutability": "view",
					"type": "function"
				},
				{
					"inputs": [],
					"name": "owner",
					"outputs": [
						{
							"internalType": "address",
							"name": "",
							"type": "address"
						}
					],
					"stateMutability": "view",
					"type": "function"
				},
				{
					"inputs": [
						{
							"internalType": "string",
							"name": "domainName",
							"type": "string"
						}
					],
					"name": "registerDomain",
					"outputs": [],
					"stateMutability": "payable",
					"type": "function"
				},
				{
					"inputs": [],
					"name": "renounceOwnership",
					"outputs": [],
					"stateMutability": "nonpayable",
					"type": "function"
				},
				{
					"inputs": [
						{
							"internalType": "uint256",
							"name": "newPrice",
							"type": "uint256"
						}
					],
					"name": "setDomainPrice",
					"outputs": [],
					"stateMutability": "nonpayable",
					"type": "function"
				},
				{
					"inputs": [
						{
							"internalType": "address",
							"name": "newOwner",
							"type": "address"
						}
					],
					"name": "transferOwnership",
					"outputs": [],
					"stateMutability": "nonpayable",
					"type": "function"
				},
				{
					"inputs": [
						{
							"internalType": "address payable",
							"name": "to",
							"type": "address"
						}
					],
					"name": "withdrawAllEther",
					"outputs": [],
					"stateMutability": "nonpayable",
					"type": "function"
				}
			],
			"devdoc": {
				"author": "Sergey Nesterov (Sergio-Prog)",
				"errors": {
					"OwnableInvalidOwner(address)": [
						{
							"details": "The owner is not a valid owner account. (eg. `address(0)`)"
						}
					],
					"OwnableUnauthorizedAccount(address)": [
						{
							"details": "The caller account is not authorized to perform an operation."
						}
					]
				},
				"kind": "dev",
				"methods": {
					"getDomainController(string)": {
						"params": {
							"domainName": "Name of domain to check"
						}
					},
					"owner()": {
						"details": "Returns the address of the current owner."
					},
					"registerDomain(string)": {
						"params": {
							"domainName": "Name of domain to register"
						}
					},
					"renounceOwnership()": {
						"details": "Leaves the contract without owner. It will not be possible to call `onlyOwner` functions. Can only be called by the current owner. NOTE: Renouncing ownership will leave the contract without an owner, thereby disabling any functionality that is only available to the owner."
					},
					"setDomainPrice(uint256)": {
						"params": {
							"newPrice": "New price for domains"
						}
					},
					"transferOwnership(address)": {
						"details": "Transfers ownership of the contract to a new account (`newOwner`). Can only be called by the current owner."
					}
				},
				"title": "A simple domain registry",
				"version": 1
			},
			"evm": {
				"assembly": "    /* \"contracts/RegistrarController.sol\":267:1735  contract RegistrarController is IRegistrarController, Ownable {... */\n  mstore(0x40, 0x80)\n    /* \"contracts/RegistrarController.sol\":426:534  constructor(address _owner, uint _domainPrice) Ownable(_owner) {... */\n  callvalue\n  dup1\n  iszero\n  tag_1\n  jumpi\n  0x00\n  dup1\n  revert\ntag_1:\n  pop\n  mload(0x40)\n  sub(codesize, bytecodeSize)\n  dup1\n  bytecodeSize\n  dup4\n  codecopy\n  dup2\n  add\n  0x40\n  dup2\n  swap1\n  mstore\n  tag_2\n  swap2\n  tag_3\n  jump\t// in\ntag_2:\n    /* \"contracts/RegistrarController.sol\":481:487  _owner */\n  dup2\n  sub(shl(0xa0, 0x01), 0x01)\n    /* \"@openzeppelin/contracts/access/Ownable.sol\":1273:1299  initialOwner == address(0) */\n  dup2\n  and\n    /* \"@openzeppelin/contracts/access/Ownable.sol\":1269:1364  if (initialOwner == address(0)) {... */\n  tag_7\n  jumpi\n    /* \"@openzeppelin/contracts/access/Ownable.sol\":1322:1353  OwnableInvalidOwner(address(0)) */\n  mload(0x40)\n  shl(0xe0, 0x1e4fbdf7)\n  dup2\n  mstore\n    /* \"@openzeppelin/contracts/access/Ownable.sol\":1350:1351  0 */\n  0x00\n    /* \"@openzeppelin/contracts/access/Ownable.sol\":1322:1353  OwnableInvalidOwner(address(0)) */\n  0x04\n  dup3\n  add\n    /* \"#utility.yul\":516:567   */\n  mstore\n    /* \"#utility.yul\":489:507   */\n  0x24\n  add\n    /* \"@openzeppelin/contracts/access/Ownable.sol\":1322:1353  OwnableInvalidOwner(address(0)) */\n  mload(0x40)\n  dup1\n  swap2\n  sub\n  swap1\n  revert\n    /* \"@openzeppelin/contracts/access/Ownable.sol\":1269:1364  if (initialOwner == address(0)) {... */\ntag_7:\n    /* \"@openzeppelin/contracts/access/Ownable.sol\":1373:1405  _transferOwnership(initialOwner) */\n  tag_10\n    /* \"@openzeppelin/contracts/access/Ownable.sol\":1392:1404  initialOwner */\n  dup2\n    /* \"@openzeppelin/contracts/access/Ownable.sol\":1373:1391  _transferOwnership */\n  tag_11\n    /* \"@openzeppelin/contracts/access/Ownable.sol\":1373:1405  _transferOwnership(initialOwner) */\n  jump\t// in\ntag_10:\n  pop\n    /* \"contracts/RegistrarController.sol\":500:511  domainPrice */\n  0x01\n    /* \"contracts/RegistrarController.sol\":500:526  domainPrice = _domainPrice */\n  sstore\n  pop\n    /* \"contracts/RegistrarController.sol\":267:1735  contract RegistrarController is IRegistrarController, Ownable {... */\n  jump(tag_15)\n    /* \"@openzeppelin/contracts/access/Ownable.sol\":2912:3099  function _transferOwnership(address newOwner) internal virtual {... */\ntag_11:\n    /* \"@openzeppelin/contracts/access/Ownable.sol\":2985:3001  address oldOwner */\n  0x00\n    /* \"@openzeppelin/contracts/access/Ownable.sol\":3004:3010  _owner */\n  dup1\n  sload\n  sub(shl(0xa0, 0x01), 0x01)\n    /* \"@openzeppelin/contracts/access/Ownable.sol\":3020:3037  _owner = newOwner */\n  dup4\n  dup2\n  and\n  not(sub(shl(0xa0, 0x01), 0x01))\n  dup4\n  and\n  dup2\n  or\n  dup5\n  sstore\n    /* \"@openzeppelin/contracts/access/Ownable.sol\":3052:3092  OwnershipTransferred(oldOwner, newOwner) */\n  mload(0x40)\n    /* \"@openzeppelin/contracts/access/Ownable.sol\":3004:3010  _owner */\n  swap2\n  swap1\n  swap3\n  and\n  swap3\n  dup4\n  swap2\n    /* \"@openzeppelin/contracts/access/Ownable.sol\":3052:3092  OwnershipTransferred(oldOwner, newOwner) */\n  0x8be0079c531659141344cd1fd0a4f28419497f9722a3daafe3b4186f6b6457e0\n  swap2\n    /* \"@openzeppelin/contracts/access/Ownable.sol\":2985:3001  address oldOwner */\n  swap1\n    /* \"@openzeppelin/contracts/access/Ownable.sol\":3052:3092  OwnershipTransferred(oldOwner, newOwner) */\n  log3\n    /* \"@openzeppelin/contracts/access/Ownable.sol\":2975:3099  {... */\n  pop\n    /* \"@openzeppelin/contracts/access/Ownable.sol\":2912:3099  function _transferOwnership(address newOwner) internal virtual {... */\n  pop\n  jump\t// out\n    /* \"#utility.yul\":14:365   */\ntag_3:\n    /* \"#utility.yul\":93:99   */\n  0x00\n    /* \"#utility.yul\":101:107   */\n  dup1\n    /* \"#utility.yul\":154:156   */\n  0x40\n    /* \"#utility.yul\":142:151   */\n  dup4\n    /* \"#utility.yul\":133:140   */\n  dup6\n    /* \"#utility.yul\":129:152   */\n  sub\n    /* \"#utility.yul\":125:157   */\n  slt\n    /* \"#utility.yul\":122:174   */\n  iszero\n  tag_17\n  jumpi\n    /* \"#utility.yul\":170:171   */\n  0x00\n    /* \"#utility.yul\":167:168   */\n  dup1\n    /* \"#utility.yul\":160:172   */\n  revert\n    /* \"#utility.yul\":122:174   */\ntag_17:\n    /* \"#utility.yul\":196:212   */\n  dup3\n  mload\n  sub(shl(0xa0, 0x01), 0x01)\n    /* \"#utility.yul\":241:272   */\n  dup2\n  and\n    /* \"#utility.yul\":231:273   */\n  dup2\n  eq\n    /* \"#utility.yul\":221:291   */\n  tag_18\n  jumpi\n    /* \"#utility.yul\":287:288   */\n  0x00\n    /* \"#utility.yul\":284:285   */\n  dup1\n    /* \"#utility.yul\":277:289   */\n  revert\n    /* \"#utility.yul\":221:291   */\ntag_18:\n    /* \"#utility.yul\":355:357   */\n  0x20\n    /* \"#utility.yul\":340:358   */\n  swap4\n  swap1\n  swap4\n  add\n    /* \"#utility.yul\":334:359   */\n  mload\n    /* \"#utility.yul\":310:315   */\n  swap3\n  swap5\n    /* \"#utility.yul\":334:359   */\n  swap3\n  swap4\n  pop\n  pop\n  pop\n    /* \"#utility.yul\":14:365   */\n  jump\t// out\n    /* \"#utility.yul\":370:573   */\ntag_15:\n    /* \"contracts/RegistrarController.sol\":267:1735  contract RegistrarController is IRegistrarController, Ownable {... */\n  dataSize(sub_0)\n  dup1\n  dataOffset(sub_0)\n  0x00\n  codecopy\n  0x00\n  return\nstop\n\nsub_0: assembly {\n        /* \"contracts/RegistrarController.sol\":267:1735  contract RegistrarController is IRegistrarController, Ownable {... */\n      mstore(0x40, 0x80)\n      jumpi(tag_1, lt(calldatasize, 0x04))\n      shr(0xe0, calldataload(0x00))\n      dup1\n      0x9fc9e022\n      gt\n      tag_10\n      jumpi\n      dup1\n      0x9fc9e022\n      eq\n      tag_6\n      jumpi\n      dup1\n      0xa5cad08a\n      eq\n      tag_7\n      jumpi\n      dup1\n      0xa89a9ffb\n      eq\n      tag_8\n      jumpi\n      dup1\n      0xf2fde38b\n      eq\n      tag_9\n      jumpi\n      0x00\n      dup1\n      revert\n    tag_10:\n      dup1\n      0x5c97404a\n      eq\n      tag_2\n      jumpi\n      dup1\n      0x715018a6\n      eq\n      tag_3\n      jumpi\n      dup1\n      0x8da5cb5b\n      eq\n      tag_4\n      jumpi\n      dup1\n      0x96980815\n      eq\n      tag_5\n      jumpi\n    tag_1:\n      0x00\n      dup1\n      revert\n        /* \"contracts/RegistrarController.sol\":336:359  uint public domainPrice */\n    tag_2:\n      callvalue\n      dup1\n      iszero\n      tag_11\n      jumpi\n      0x00\n      dup1\n      revert\n    tag_11:\n      pop\n      tag_12\n      sload(0x01)\n      dup2\n      jump\n    tag_12:\n      mload(0x40)\n        /* \"#utility.yul\":160:185   */\n      swap1\n      dup2\n      mstore\n        /* \"#utility.yul\":148:150   */\n      0x20\n        /* \"#utility.yul\":133:151   */\n      add\n        /* \"contracts/RegistrarController.sol\":336:359  uint public domainPrice */\n    tag_14:\n      mload(0x40)\n      dup1\n      swap2\n      sub\n      swap1\n      return\n        /* \"@openzeppelin/contracts/access/Ownable.sol\":2293:2394  function renounceOwnership() public virtual onlyOwner {... */\n    tag_3:\n      callvalue\n      dup1\n      iszero\n      tag_16\n      jumpi\n      0x00\n      dup1\n      revert\n    tag_16:\n      pop\n      tag_17\n      tag_18\n      jump\t// in\n    tag_17:\n      stop\n        /* \"@openzeppelin/contracts/access/Ownable.sol\":1638:1723  function owner() public view virtual returns (address) {... */\n    tag_4:\n      callvalue\n      dup1\n      iszero\n      tag_19\n      jumpi\n      0x00\n      dup1\n      revert\n    tag_19:\n      pop\n        /* \"@openzeppelin/contracts/access/Ownable.sol\":1684:1691  address */\n      0x00\n        /* \"@openzeppelin/contracts/access/Ownable.sol\":1710:1716  _owner */\n      sload\n      sub(shl(0xa0, 0x01), 0x01)\n      and\n        /* \"@openzeppelin/contracts/access/Ownable.sol\":1638:1723  function owner() public view virtual returns (address) {... */\n    tag_20:\n      mload(0x40)\n      sub(shl(0xa0, 0x01), 0x01)\n        /* \"#utility.yul\":360:392   */\n      swap1\n      swap2\n      and\n        /* \"#utility.yul\":342:393   */\n      dup2\n      mstore\n        /* \"#utility.yul\":330:332   */\n      0x20\n        /* \"#utility.yul\":315:333   */\n      add\n        /* \"@openzeppelin/contracts/access/Ownable.sol\":1638:1723  function owner() public view virtual returns (address) {... */\n      tag_14\n        /* \"#utility.yul\":196:399   */\n      jump\n        /* \"contracts/RegistrarController.sol\":584:816  function getDomainController(string memory domainName) external view returns (address) {... */\n    tag_5:\n      callvalue\n      dup1\n      iszero\n      tag_24\n      jumpi\n      0x00\n      dup1\n      revert\n    tag_24:\n      pop\n      tag_20\n      tag_26\n      calldatasize\n      0x04\n      tag_27\n      jump\t// in\n    tag_26:\n      tag_28\n      jump\t// in\n        /* \"contracts/RegistrarController.sol\":1300:1399  function setDomainPrice(uint newPrice) external onlyOwner {... */\n    tag_6:\n      callvalue\n      dup1\n      iszero\n      tag_30\n      jumpi\n      0x00\n      dup1\n      revert\n    tag_30:\n      pop\n      tag_17\n      tag_32\n      calldatasize\n      0x04\n      tag_33\n      jump\t// in\n    tag_32:\n      tag_34\n      jump\t// in\n        /* \"contracts/RegistrarController.sol\":866:1250  function registerDomain(string memory domainName) payable external {... */\n    tag_7:\n      tag_17\n      tag_36\n      calldatasize\n      0x04\n      tag_27\n      jump\t// in\n    tag_36:\n      tag_37\n      jump\t// in\n        /* \"contracts/RegistrarController.sol\":1449:1732  function withdrawAllEther(address payable to) external onlyOwner {... */\n    tag_8:\n      callvalue\n      dup1\n      iszero\n      tag_38\n      jumpi\n      0x00\n      dup1\n      revert\n    tag_38:\n      pop\n      tag_17\n      tag_40\n      calldatasize\n      0x04\n      tag_41\n      jump\t// in\n    tag_40:\n      tag_42\n      jump\t// in\n        /* \"@openzeppelin/contracts/access/Ownable.sol\":2543:2758  function transferOwnership(address newOwner) public virtual onlyOwner {... */\n    tag_9:\n      callvalue\n      dup1\n      iszero\n      tag_43\n      jumpi\n      0x00\n      dup1\n      revert\n    tag_43:\n      pop\n      tag_17\n      tag_45\n      calldatasize\n      0x04\n      tag_41\n      jump\t// in\n    tag_45:\n      tag_47\n      jump\t// in\n        /* \"@openzeppelin/contracts/access/Ownable.sol\":2293:2394  function renounceOwnership() public virtual onlyOwner {... */\n    tag_18:\n        /* \"@openzeppelin/contracts/access/Ownable.sol\":1531:1544  _checkOwner() */\n      tag_49\n        /* \"@openzeppelin/contracts/access/Ownable.sol\":1531:1542  _checkOwner */\n      tag_50\n        /* \"@openzeppelin/contracts/access/Ownable.sol\":1531:1544  _checkOwner() */\n      jump\t// in\n    tag_49:\n        /* \"@openzeppelin/contracts/access/Ownable.sol\":2357:2387  _transferOwnership(address(0)) */\n      tag_52\n        /* \"@openzeppelin/contracts/access/Ownable.sol\":2384:2385  0 */\n      0x00\n        /* \"@openzeppelin/contracts/access/Ownable.sol\":2357:2375  _transferOwnership */\n      tag_53\n        /* \"@openzeppelin/contracts/access/Ownable.sol\":2357:2387  _transferOwnership(address(0)) */\n      jump\t// in\n    tag_52:\n        /* \"@openzeppelin/contracts/access/Ownable.sol\":2293:2394  function renounceOwnership() public virtual onlyOwner {... */\n      jump\t// out\n        /* \"contracts/RegistrarController.sol\":584:816  function getDomainController(string memory domainName) external view returns (address) {... */\n    tag_28:\n        /* \"contracts/RegistrarController.sol\":662:669  address */\n      0x00\n        /* \"contracts/RegistrarController.sol\":783:796  domainRecords */\n      0x02\n        /* \"contracts/RegistrarController.sol\":797:807  domainName */\n      dup3\n        /* \"contracts/RegistrarController.sol\":783:808  domainRecords[domainName] */\n      mload(0x40)\n      tag_56\n      swap2\n      swap1\n      tag_57\n      jump\t// in\n    tag_56:\n      swap1\n      dup2\n      mstore\n      mload(0x40)\n      swap1\n      dup2\n      swap1\n      sub\n      0x20\n      add\n      swap1\n      keccak256\n      sload\n      sub(shl(0xa0, 0x01), 0x01)\n      and\n      swap3\n        /* \"contracts/RegistrarController.sol\":584:816  function getDomainController(string memory domainName) external view returns (address) {... */\n      swap2\n      pop\n      pop\n      jump\t// out\n        /* \"contracts/RegistrarController.sol\":1300:1399  function setDomainPrice(uint newPrice) external onlyOwner {... */\n    tag_34:\n        /* \"@openzeppelin/contracts/access/Ownable.sol\":1531:1544  _checkOwner() */\n      tag_59\n        /* \"@openzeppelin/contracts/access/Ownable.sol\":1531:1542  _checkOwner */\n      tag_50\n        /* \"@openzeppelin/contracts/access/Ownable.sol\":1531:1544  _checkOwner() */\n      jump\t// in\n    tag_59:\n        /* \"contracts/RegistrarController.sol\":1369:1380  domainPrice */\n      0x01\n        /* \"contracts/RegistrarController.sol\":1369:1391  domainPrice = newPrice */\n      sstore\n        /* \"contracts/RegistrarController.sol\":1300:1399  function setDomainPrice(uint newPrice) external onlyOwner {... */\n      jump\t// out\n        /* \"contracts/RegistrarController.sol\":866:1250  function registerDomain(string memory domainName) payable external {... */\n    tag_37:\n        /* \"contracts/RegistrarController.sol\":965:976  domainPrice */\n      sload(0x01)\n        /* \"contracts/RegistrarController.sol\":952:961  msg.value */\n      callvalue\n        /* \"contracts/RegistrarController.sol\":952:976  msg.value >= domainPrice */\n      lt\n      iszero\n        /* \"contracts/RegistrarController.sol\":944:1013  require(msg.value >= domainPrice, \"Ether value is lower than price.\") */\n      tag_62\n      jumpi\n      mload(0x40)\n      shl(0xe5, 0x461bcd)\n      dup2\n      mstore\n        /* \"#utility.yul\":2941:2943   */\n      0x20\n        /* \"contracts/RegistrarController.sol\":944:1013  require(msg.value >= domainPrice, \"Ether value is lower than price.\") */\n      0x04\n      dup3\n      add\n        /* \"#utility.yul\":2923:2944   */\n      dup2\n      swap1\n      mstore\n        /* \"#utility.yul\":2960:2978   */\n      0x24\n      dup3\n      add\n        /* \"#utility.yul\":2953:2983   */\n      mstore\n        /* \"#utility.yul\":3019:3053   */\n      0x45746865722076616c7565206973206c6f776572207468616e2070726963652e\n        /* \"#utility.yul\":2999:3017   */\n      0x44\n      dup3\n      add\n        /* \"#utility.yul\":2992:3054   */\n      mstore\n        /* \"#utility.yul\":3071:3089   */\n      0x64\n      add\n        /* \"contracts/RegistrarController.sol\":944:1013  require(msg.value >= domainPrice, \"Ether value is lower than price.\") */\n    tag_63:\n      mload(0x40)\n      dup1\n      swap2\n      sub\n      swap1\n      revert\n    tag_62:\n        /* \"contracts/RegistrarController.sol\":1069:1070  0 */\n      0x00\n      sub(shl(0xa0, 0x01), 0x01)\n        /* \"contracts/RegistrarController.sol\":1032:1071  domainRecords[domainName] == address(0) */\n      and\n        /* \"contracts/RegistrarController.sol\":1032:1045  domainRecords */\n      0x02\n        /* \"contracts/RegistrarController.sol\":1046:1056  domainName */\n      dup3\n        /* \"contracts/RegistrarController.sol\":1032:1057  domainRecords[domainName] */\n      mload(0x40)\n      tag_65\n      swap2\n      swap1\n      tag_57\n      jump\t// in\n    tag_65:\n      swap1\n      dup2\n      mstore\n      mload(0x40)\n      swap1\n      dup2\n      swap1\n      sub\n      0x20\n      add\n      swap1\n      keccak256\n      sload\n      sub(shl(0xa0, 0x01), 0x01)\n      and\n        /* \"contracts/RegistrarController.sol\":1032:1071  domainRecords[domainName] == address(0) */\n      eq\n        /* \"contracts/RegistrarController.sol\":1024:1120  require(domainRecords[domainName] == address(0), \"Domain has been purchased by someone before.\") */\n      tag_66\n      jumpi\n      mload(0x40)\n      shl(0xe5, 0x461bcd)\n      dup2\n      mstore\n        /* \"#utility.yul\":3302:3304   */\n      0x20\n        /* \"contracts/RegistrarController.sol\":1024:1120  require(domainRecords[domainName] == address(0), \"Domain has been purchased by someone before.\") */\n      0x04\n      dup3\n      add\n        /* \"#utility.yul\":3284:3305   */\n      mstore\n        /* \"#utility.yul\":3341:3343   */\n      0x2c\n        /* \"#utility.yul\":3321:3339   */\n      0x24\n      dup3\n      add\n        /* \"#utility.yul\":3314:3344   */\n      mstore\n        /* \"#utility.yul\":3380:3414   */\n      0x446f6d61696e20686173206265656e2070757263686173656420627920736f6d\n        /* \"#utility.yul\":3360:3378   */\n      0x44\n      dup3\n      add\n        /* \"#utility.yul\":3353:3415   */\n      mstore\n      shl(0xa1, 0x32b7b732903132b337b93297)\n        /* \"#utility.yul\":3431:3449   */\n      0x64\n      dup3\n      add\n        /* \"#utility.yul\":3424:3466   */\n      mstore\n        /* \"#utility.yul\":3483:3502   */\n      0x84\n      add\n        /* \"contracts/RegistrarController.sol\":1024:1120  require(domainRecords[domainName] == address(0), \"Domain has been purchased by someone before.\") */\n      tag_63\n        /* \"#utility.yul\":3100:3508   */\n      jump\n        /* \"contracts/RegistrarController.sol\":1024:1120  require(domainRecords[domainName] == address(0), \"Domain has been purchased by someone before.\") */\n    tag_66:\n        /* \"contracts/RegistrarController.sol\":1161:1171  msg.sender */\n      caller\n        /* \"contracts/RegistrarController.sol\":1133:1146  domainRecords */\n      0x02\n        /* \"contracts/RegistrarController.sol\":1147:1157  domainName */\n      dup3\n        /* \"contracts/RegistrarController.sol\":1133:1158  domainRecords[domainName] */\n      mload(0x40)\n      tag_69\n      swap2\n      swap1\n      tag_57\n      jump\t// in\n    tag_69:\n      swap1\n      dup2\n      mstore\n      mload(0x40)\n      swap1\n      dup2\n      swap1\n      sub\n      0x20\n      add\n      dup2\n      keccak256\n        /* \"contracts/RegistrarController.sol\":1133:1171  domainRecords[domainName] = msg.sender */\n      dup1\n      sload\n      sub(shl(0xa0, 0x01), 0x01)\n      swap4\n      swap1\n      swap4\n      and\n      not(sub(shl(0xa0, 0x01), 0x01))\n      swap1\n      swap4\n      and\n      swap3\n      swap1\n      swap3\n      or\n      swap1\n      swap2\n      sstore\n        /* \"contracts/RegistrarController.sol\":1226:1241  block.timestamp */\n      timestamp\n      swap1\n        /* \"contracts/RegistrarController.sol\":1187:1242  DomainPurchase(msg.sender, domainName, block.timestamp) */\n      tag_70\n      swap1\n        /* \"contracts/RegistrarController.sol\":1214:1224  domainName */\n      dup4\n      swap1\n        /* \"contracts/RegistrarController.sol\":1187:1242  DomainPurchase(msg.sender, domainName, block.timestamp) */\n      tag_57\n      jump\t// in\n    tag_70:\n      mload(0x40)\n      swap1\n      dup2\n      swap1\n      sub\n      dup2\n      keccak256\n      swap1\n        /* \"contracts/RegistrarController.sol\":1202:1212  msg.sender */\n      caller\n      swap1\n        /* \"contracts/RegistrarController.sol\":1187:1242  DomainPurchase(msg.sender, domainName, block.timestamp) */\n      0xbfb26b4c07b3769abe71d609ea3d0a46f7e3bf9035e12400b572e76e843ee2cf\n      swap1\n      0x00\n      swap1\n      log4\n        /* \"contracts/RegistrarController.sol\":866:1250  function registerDomain(string memory domainName) payable external {... */\n      pop\n      jump\t// out\n        /* \"contracts/RegistrarController.sol\":1449:1732  function withdrawAllEther(address payable to) external onlyOwner {... */\n    tag_42:\n        /* \"@openzeppelin/contracts/access/Ownable.sol\":1531:1544  _checkOwner() */\n      tag_72\n        /* \"@openzeppelin/contracts/access/Ownable.sol\":1531:1542  _checkOwner */\n      tag_50\n        /* \"@openzeppelin/contracts/access/Ownable.sol\":1531:1544  _checkOwner() */\n      jump\t// in\n    tag_72:\n        /* \"contracts/RegistrarController.sol\":1605:1632  to.call{value: balance}(\"\") */\n      mload(0x40)\n        /* \"contracts/RegistrarController.sol\":1540:1561  address(this).balance */\n      selfbalance\n      swap1\n        /* \"contracts/RegistrarController.sol\":1525:1537  uint balance */\n      0x00\n      swap1\n      dup2\n      swap1\n      sub(shl(0xa0, 0x01), 0x01)\n        /* \"contracts/RegistrarController.sol\":1605:1612  to.call */\n      dup6\n      and\n      swap1\n        /* \"contracts/RegistrarController.sol\":1540:1561  address(this).balance */\n      dup5\n      swap1\n        /* \"contracts/RegistrarController.sol\":1525:1537  uint balance */\n      dup4\n        /* \"contracts/RegistrarController.sol\":1605:1632  to.call{value: balance}(\"\") */\n      dup2\n        /* \"contracts/RegistrarController.sol\":1525:1537  uint balance */\n      dup2\n        /* \"contracts/RegistrarController.sol\":1605:1632  to.call{value: balance}(\"\") */\n      dup2\n        /* \"contracts/RegistrarController.sol\":1540:1561  address(this).balance */\n      dup6\n        /* \"contracts/RegistrarController.sol\":1605:1612  to.call */\n      dup8\n        /* \"contracts/RegistrarController.sol\":1605:1632  to.call{value: balance}(\"\") */\n      gas\n      call\n      swap3\n      pop\n      pop\n      pop\n      returndatasize\n      dup1\n      0x00\n      dup2\n      eq\n      tag_78\n      jumpi\n      mload(0x40)\n      swap2\n      pop\n      and(add(returndatasize, 0x3f), not(0x1f))\n      dup3\n      add\n      0x40\n      mstore\n      returndatasize\n      dup3\n      mstore\n      returndatasize\n      0x00\n      0x20\n      dup5\n      add\n      returndatacopy\n      jump(tag_77)\n    tag_78:\n      0x60\n      swap2\n      pop\n    tag_77:\n      pop\n        /* \"contracts/RegistrarController.sol\":1572:1632  (bool sent, bytes memory data) = to.call{value: balance}(\"\") */\n      swap2\n      pop\n      swap2\n      pop\n        /* \"contracts/RegistrarController.sol\":1651:1655  sent */\n      dup2\n        /* \"contracts/RegistrarController.sol\":1643:1680  require(sent, \"Failed to send Ether\") */\n      tag_79\n      jumpi\n      mload(0x40)\n      shl(0xe5, 0x461bcd)\n      dup2\n      mstore\n        /* \"#utility.yul\":3925:3927   */\n      0x20\n        /* \"contracts/RegistrarController.sol\":1643:1680  require(sent, \"Failed to send Ether\") */\n      0x04\n      dup3\n      add\n        /* \"#utility.yul\":3907:3928   */\n      mstore\n        /* \"#utility.yul\":3964:3966   */\n      0x14\n        /* \"#utility.yul\":3944:3962   */\n      0x24\n      dup3\n      add\n        /* \"#utility.yul\":3937:3967   */\n      mstore\n      shl(0x61, 0x2330b4b632b2103a379039b2b7321022ba3432b9)\n        /* \"#utility.yul\":3983:4001   */\n      0x44\n      dup3\n      add\n        /* \"#utility.yul\":3976:4026   */\n      mstore\n        /* \"#utility.yul\":4043:4061   */\n      0x64\n      add\n        /* \"contracts/RegistrarController.sol\":1643:1680  require(sent, \"Failed to send Ether\") */\n      tag_63\n        /* \"#utility.yul\":3723:4067   */\n      jump\n        /* \"contracts/RegistrarController.sol\":1643:1680  require(sent, \"Failed to send Ether\") */\n    tag_79:\n        /* \"contracts/RegistrarController.sol\":1698:1724  EtherWithdraw(to, balance) */\n      mload(0x40)\n        /* \"contracts/RegistrarController.sol\":1716:1723  balance */\n      dup4\n      swap1\n      sub(shl(0xa0, 0x01), 0x01)\n        /* \"contracts/RegistrarController.sol\":1698:1724  EtherWithdraw(to, balance) */\n      dup7\n      and\n      swap1\n      0x88f6de14cf08cddfb4408f10758b118c28fc89b6e294e40a62286f8672599de8\n      swap1\n      0x00\n      swap1\n      log3\n        /* \"contracts/RegistrarController.sol\":1514:1732  {... */\n      pop\n      pop\n      pop\n        /* \"contracts/RegistrarController.sol\":1449:1732  function withdrawAllEther(address payable to) external onlyOwner {... */\n      pop\n      jump\t// out\n        /* \"@openzeppelin/contracts/access/Ownable.sol\":2543:2758  function transferOwnership(address newOwner) public virtual onlyOwner {... */\n    tag_47:\n        /* \"@openzeppelin/contracts/access/Ownable.sol\":1531:1544  _checkOwner() */\n      tag_83\n        /* \"@openzeppelin/contracts/access/Ownable.sol\":1531:1542  _checkOwner */\n      tag_50\n        /* \"@openzeppelin/contracts/access/Ownable.sol\":1531:1544  _checkOwner() */\n      jump\t// in\n    tag_83:\n      sub(shl(0xa0, 0x01), 0x01)\n        /* \"@openzeppelin/contracts/access/Ownable.sol\":2627:2649  newOwner == address(0) */\n      dup2\n      and\n        /* \"@openzeppelin/contracts/access/Ownable.sol\":2623:2714  if (newOwner == address(0)) {... */\n      tag_85\n      jumpi\n        /* \"@openzeppelin/contracts/access/Ownable.sol\":2672:2703  OwnableInvalidOwner(address(0)) */\n      mload(0x40)\n      shl(0xe0, 0x1e4fbdf7)\n      dup2\n      mstore\n        /* \"@openzeppelin/contracts/access/Ownable.sol\":2700:2701  0 */\n      0x00\n        /* \"@openzeppelin/contracts/access/Ownable.sol\":2672:2703  OwnableInvalidOwner(address(0)) */\n      0x04\n      dup3\n      add\n        /* \"#utility.yul\":342:393   */\n      mstore\n        /* \"#utility.yul\":315:333   */\n      0x24\n      add\n        /* \"@openzeppelin/contracts/access/Ownable.sol\":2672:2703  OwnableInvalidOwner(address(0)) */\n      tag_63\n        /* \"#utility.yul\":196:399   */\n      jump\n        /* \"@openzeppelin/contracts/access/Ownable.sol\":2623:2714  if (newOwner == address(0)) {... */\n    tag_85:\n        /* \"@openzeppelin/contracts/access/Ownable.sol\":2723:2751  _transferOwnership(newOwner) */\n      tag_87\n        /* \"@openzeppelin/contracts/access/Ownable.sol\":2742:2750  newOwner */\n      dup2\n        /* \"@openzeppelin/contracts/access/Ownable.sol\":2723:2741  _transferOwnership */\n      tag_53\n        /* \"@openzeppelin/contracts/access/Ownable.sol\":2723:2751  _transferOwnership(newOwner) */\n      jump\t// in\n    tag_87:\n        /* \"@openzeppelin/contracts/access/Ownable.sol\":2543:2758  function transferOwnership(address newOwner) public virtual onlyOwner {... */\n      pop\n      jump\t// out\n        /* \"@openzeppelin/contracts/access/Ownable.sol\":1796:1958  function _checkOwner() internal view virtual {... */\n    tag_50:\n        /* \"@openzeppelin/contracts/access/Ownable.sol\":1684:1691  address */\n      0x00\n        /* \"@openzeppelin/contracts/access/Ownable.sol\":1710:1716  _owner */\n      sload\n      sub(shl(0xa0, 0x01), 0x01)\n      and\n        /* \"@openzeppelin/contracts/utils/Context.sol\":735:745  msg.sender */\n      caller\n        /* \"@openzeppelin/contracts/access/Ownable.sol\":1855:1878  owner() != _msgSender() */\n      eq\n        /* \"@openzeppelin/contracts/access/Ownable.sol\":1851:1952  if (owner() != _msgSender()) {... */\n      tag_52\n      jumpi\n        /* \"@openzeppelin/contracts/access/Ownable.sol\":1901:1941  OwnableUnauthorizedAccount(_msgSender()) */\n      mload(0x40)\n      shl(0xe0, 0x118cdaa7)\n      dup2\n      mstore\n        /* \"@openzeppelin/contracts/utils/Context.sol\":735:745  msg.sender */\n      caller\n        /* \"@openzeppelin/contracts/access/Ownable.sol\":1901:1941  OwnableUnauthorizedAccount(_msgSender()) */\n      0x04\n      dup3\n      add\n        /* \"#utility.yul\":342:393   */\n      mstore\n        /* \"#utility.yul\":315:333   */\n      0x24\n      add\n        /* \"@openzeppelin/contracts/access/Ownable.sol\":1901:1941  OwnableUnauthorizedAccount(_msgSender()) */\n      tag_63\n        /* \"#utility.yul\":196:399   */\n      jump\n        /* \"@openzeppelin/contracts/access/Ownable.sol\":2912:3099  function _transferOwnership(address newOwner) internal virtual {... */\n    tag_53:\n        /* \"@openzeppelin/contracts/access/Ownable.sol\":2985:3001  address oldOwner */\n      0x00\n        /* \"@openzeppelin/contracts/access/Ownable.sol\":3004:3010  _owner */\n      dup1\n      sload\n      sub(shl(0xa0, 0x01), 0x01)\n        /* \"@openzeppelin/contracts/access/Ownable.sol\":3020:3037  _owner = newOwner */\n      dup4\n      dup2\n      and\n      not(sub(shl(0xa0, 0x01), 0x01))\n      dup4\n      and\n      dup2\n      or\n      dup5\n      sstore\n        /* \"@openzeppelin/contracts/access/Ownable.sol\":3052:3092  OwnershipTransferred(oldOwner, newOwner) */\n      mload(0x40)\n        /* \"@openzeppelin/contracts/access/Ownable.sol\":3004:3010  _owner */\n      swap2\n      swap1\n      swap3\n      and\n      swap3\n      dup4\n      swap2\n        /* \"@openzeppelin/contracts/access/Ownable.sol\":3052:3092  OwnershipTransferred(oldOwner, newOwner) */\n      0x8be0079c531659141344cd1fd0a4f28419497f9722a3daafe3b4186f6b6457e0\n      swap2\n        /* \"@openzeppelin/contracts/access/Ownable.sol\":2985:3001  address oldOwner */\n      swap1\n        /* \"@openzeppelin/contracts/access/Ownable.sol\":3052:3092  OwnershipTransferred(oldOwner, newOwner) */\n      log3\n        /* \"@openzeppelin/contracts/access/Ownable.sol\":2975:3099  {... */\n      pop\n        /* \"@openzeppelin/contracts/access/Ownable.sol\":2912:3099  function _transferOwnership(address newOwner) internal virtual {... */\n      pop\n      jump\t// out\n        /* \"#utility.yul\":404:531   */\n    tag_97:\n        /* \"#utility.yul\":465:475   */\n      0x4e487b71\n        /* \"#utility.yul\":460:463   */\n      0xe0\n        /* \"#utility.yul\":456:476   */\n      shl\n        /* \"#utility.yul\":453:454   */\n      0x00\n        /* \"#utility.yul\":446:477   */\n      mstore\n        /* \"#utility.yul\":496:500   */\n      0x41\n        /* \"#utility.yul\":493:494   */\n      0x04\n        /* \"#utility.yul\":486:501   */\n      mstore\n        /* \"#utility.yul\":520:524   */\n      0x24\n        /* \"#utility.yul\":517:518   */\n      0x00\n        /* \"#utility.yul\":510:525   */\n      revert\n        /* \"#utility.yul\":536:1458   */\n    tag_27:\n        /* \"#utility.yul\":605:611   */\n      0x00\n        /* \"#utility.yul\":658:660   */\n      0x20\n        /* \"#utility.yul\":646:655   */\n      dup3\n        /* \"#utility.yul\":637:644   */\n      dup5\n        /* \"#utility.yul\":633:656   */\n      sub\n        /* \"#utility.yul\":629:661   */\n      slt\n        /* \"#utility.yul\":626:678   */\n      iszero\n      tag_104\n      jumpi\n        /* \"#utility.yul\":674:675   */\n      0x00\n        /* \"#utility.yul\":671:672   */\n      dup1\n        /* \"#utility.yul\":664:676   */\n      revert\n        /* \"#utility.yul\":626:678   */\n    tag_104:\n        /* \"#utility.yul\":714:723   */\n      dup2\n        /* \"#utility.yul\":701:724   */\n      calldataload\n        /* \"#utility.yul\":743:761   */\n      0xffffffffffffffff\n        /* \"#utility.yul\":784:786   */\n      dup1\n        /* \"#utility.yul\":776:782   */\n      dup3\n        /* \"#utility.yul\":773:787   */\n      gt\n        /* \"#utility.yul\":770:804   */\n      iszero\n      tag_105\n      jumpi\n        /* \"#utility.yul\":800:801   */\n      0x00\n        /* \"#utility.yul\":797:798   */\n      dup1\n        /* \"#utility.yul\":790:802   */\n      revert\n        /* \"#utility.yul\":770:804   */\n    tag_105:\n        /* \"#utility.yul\":838:844   */\n      dup2\n        /* \"#utility.yul\":827:836   */\n      dup5\n        /* \"#utility.yul\":823:845   */\n      add\n        /* \"#utility.yul\":813:845   */\n      swap2\n      pop\n        /* \"#utility.yul\":883:890   */\n      dup5\n        /* \"#utility.yul\":876:880   */\n      0x1f\n        /* \"#utility.yul\":872:874   */\n      dup4\n        /* \"#utility.yul\":868:881   */\n      add\n        /* \"#utility.yul\":864:891   */\n      slt\n        /* \"#utility.yul\":854:909   */\n      tag_106\n      jumpi\n        /* \"#utility.yul\":905:906   */\n      0x00\n        /* \"#utility.yul\":902:903   */\n      dup1\n        /* \"#utility.yul\":895:907   */\n      revert\n        /* \"#utility.yul\":854:909   */\n    tag_106:\n        /* \"#utility.yul\":941:943   */\n      dup2\n        /* \"#utility.yul\":928:944   */\n      calldataload\n        /* \"#utility.yul\":963:965   */\n      dup2\n        /* \"#utility.yul\":959:961   */\n      dup2\n        /* \"#utility.yul\":956:966   */\n      gt\n        /* \"#utility.yul\":953:989   */\n      iszero\n      tag_108\n      jumpi\n        /* \"#utility.yul\":969:987   */\n      tag_108\n      tag_97\n      jump\t// in\n    tag_108:\n        /* \"#utility.yul\":1044:1046   */\n      0x40\n        /* \"#utility.yul\":1038:1047   */\n      mload\n        /* \"#utility.yul\":1012:1014   */\n      0x1f\n        /* \"#utility.yul\":1098:1111   */\n      dup3\n      add\n      not(0x1f)\n        /* \"#utility.yul\":1094:1116   */\n      swap1\n      dup2\n      and\n        /* \"#utility.yul\":1118:1120   */\n      0x3f\n        /* \"#utility.yul\":1090:1121   */\n      add\n        /* \"#utility.yul\":1086:1126   */\n      and\n        /* \"#utility.yul\":1074:1127   */\n      dup2\n      add\n      swap1\n        /* \"#utility.yul\":1142:1160   */\n      dup4\n      dup3\n      gt\n        /* \"#utility.yul\":1162:1184   */\n      dup2\n      dup4\n      lt\n        /* \"#utility.yul\":1139:1185   */\n      or\n        /* \"#utility.yul\":1136:1208   */\n      iszero\n      tag_110\n      jumpi\n        /* \"#utility.yul\":1188:1206   */\n      tag_110\n      tag_97\n      jump\t// in\n    tag_110:\n        /* \"#utility.yul\":1228:1238   */\n      dup2\n        /* \"#utility.yul\":1224:1226   */\n      0x40\n        /* \"#utility.yul\":1217:1239   */\n      mstore\n        /* \"#utility.yul\":1263:1265   */\n      dup3\n        /* \"#utility.yul\":1255:1261   */\n      dup2\n        /* \"#utility.yul\":1248:1266   */\n      mstore\n        /* \"#utility.yul\":1303:1310   */\n      dup8\n        /* \"#utility.yul\":1298:1300   */\n      0x20\n        /* \"#utility.yul\":1293:1295   */\n      dup5\n        /* \"#utility.yul\":1289:1291   */\n      dup8\n        /* \"#utility.yul\":1285:1296   */\n      add\n        /* \"#utility.yul\":1281:1301   */\n      add\n        /* \"#utility.yul\":1278:1311   */\n      gt\n        /* \"#utility.yul\":1275:1328   */\n      iszero\n      tag_111\n      jumpi\n        /* \"#utility.yul\":1324:1325   */\n      0x00\n        /* \"#utility.yul\":1321:1322   */\n      dup1\n        /* \"#utility.yul\":1314:1326   */\n      revert\n        /* \"#utility.yul\":1275:1328   */\n    tag_111:\n        /* \"#utility.yul\":1380:1382   */\n      dup3\n        /* \"#utility.yul\":1375:1377   */\n      0x20\n        /* \"#utility.yul\":1371:1373   */\n      dup7\n        /* \"#utility.yul\":1367:1378   */\n      add\n        /* \"#utility.yul\":1362:1364   */\n      0x20\n        /* \"#utility.yul\":1354:1360   */\n      dup4\n        /* \"#utility.yul\":1350:1365   */\n      add\n        /* \"#utility.yul\":1337:1383   */\n      calldatacopy\n        /* \"#utility.yul\":1425:1426   */\n      0x00\n        /* \"#utility.yul\":1403:1418   */\n      swap3\n      dup2\n      add\n        /* \"#utility.yul\":1420:1422   */\n      0x20\n        /* \"#utility.yul\":1399:1423   */\n      add\n        /* \"#utility.yul\":1392:1427   */\n      swap3\n      swap1\n      swap3\n      mstore\n      pop\n        /* \"#utility.yul\":1407:1413   */\n      swap6\n        /* \"#utility.yul\":536:1458   */\n      swap5\n      pop\n      pop\n      pop\n      pop\n      pop\n      jump\t// out\n        /* \"#utility.yul\":1463:1643   */\n    tag_33:\n        /* \"#utility.yul\":1522:1528   */\n      0x00\n        /* \"#utility.yul\":1575:1577   */\n      0x20\n        /* \"#utility.yul\":1563:1572   */\n      dup3\n        /* \"#utility.yul\":1554:1561   */\n      dup5\n        /* \"#utility.yul\":1550:1573   */\n      sub\n        /* \"#utility.yul\":1546:1578   */\n      slt\n        /* \"#utility.yul\":1543:1595   */\n      iszero\n      tag_113\n      jumpi\n        /* \"#utility.yul\":1591:1592   */\n      0x00\n        /* \"#utility.yul\":1588:1589   */\n      dup1\n        /* \"#utility.yul\":1581:1593   */\n      revert\n        /* \"#utility.yul\":1543:1595   */\n    tag_113:\n      pop\n        /* \"#utility.yul\":1614:1637   */\n      calldataload\n      swap2\n        /* \"#utility.yul\":1463:1643   */\n      swap1\n      pop\n      jump\t// out\n        /* \"#utility.yul\":1648:1787   */\n    tag_98:\n      sub(shl(0xa0, 0x01), 0x01)\n        /* \"#utility.yul\":1731:1762   */\n      dup2\n      and\n        /* \"#utility.yul\":1721:1763   */\n      dup2\n      eq\n        /* \"#utility.yul\":1711:1781   */\n      tag_87\n      jumpi\n        /* \"#utility.yul\":1777:1778   */\n      0x00\n        /* \"#utility.yul\":1774:1775   */\n      dup1\n        /* \"#utility.yul\":1767:1779   */\n      revert\n        /* \"#utility.yul\":1792:2055   */\n    tag_41:\n        /* \"#utility.yul\":1859:1865   */\n      0x00\n        /* \"#utility.yul\":1912:1914   */\n      0x20\n        /* \"#utility.yul\":1900:1909   */\n      dup3\n        /* \"#utility.yul\":1891:1898   */\n      dup5\n        /* \"#utility.yul\":1887:1910   */\n      sub\n        /* \"#utility.yul\":1883:1915   */\n      slt\n        /* \"#utility.yul\":1880:1932   */\n      iszero\n      tag_117\n      jumpi\n        /* \"#utility.yul\":1928:1929   */\n      0x00\n        /* \"#utility.yul\":1925:1926   */\n      dup1\n        /* \"#utility.yul\":1918:1930   */\n      revert\n        /* \"#utility.yul\":1880:1932   */\n    tag_117:\n        /* \"#utility.yul\":1967:1976   */\n      dup2\n        /* \"#utility.yul\":1954:1977   */\n      calldataload\n        /* \"#utility.yul\":1986:2025   */\n      tag_118\n        /* \"#utility.yul\":2019:2024   */\n      dup2\n        /* \"#utility.yul\":1986:2025   */\n      tag_98\n      jump\t// in\n    tag_118:\n        /* \"#utility.yul\":2044:2049   */\n      swap4\n        /* \"#utility.yul\":1792:2055   */\n      swap3\n      pop\n      pop\n      pop\n      jump\t// out\n        /* \"#utility.yul\":2320:2734   */\n    tag_57:\n        /* \"#utility.yul\":2451:2454   */\n      0x00\n        /* \"#utility.yul\":2489:2495   */\n      dup3\n        /* \"#utility.yul\":2483:2496   */\n      mload\n        /* \"#utility.yul\":2514:2515   */\n      0x00\n        /* \"#utility.yul\":2524:2653   */\n    tag_123:\n        /* \"#utility.yul\":2538:2544   */\n      dup2\n        /* \"#utility.yul\":2535:2536   */\n      dup2\n        /* \"#utility.yul\":2532:2545   */\n      lt\n        /* \"#utility.yul\":2524:2653   */\n      iszero\n      tag_125\n      jumpi\n        /* \"#utility.yul\":2636:2640   */\n      0x20\n        /* \"#utility.yul\":2620:2634   */\n      dup2\n      dup7\n      add\n        /* \"#utility.yul\":2616:2641   */\n      dup2\n      add\n        /* \"#utility.yul\":2610:2642   */\n      mload\n        /* \"#utility.yul\":2597:2608   */\n      dup6\n      dup4\n      add\n        /* \"#utility.yul\":2590:2643   */\n      mstore\n        /* \"#utility.yul\":2553:2565   */\n      add\n        /* \"#utility.yul\":2524:2653   */\n      jump(tag_123)\n    tag_125:\n      pop\n        /* \"#utility.yul\":2708:2709   */\n      0x00\n        /* \"#utility.yul\":2672:2688   */\n      swap3\n      add\n        /* \"#utility.yul\":2697:2710   */\n      swap2\n      dup3\n      mstore\n      pop\n        /* \"#utility.yul\":2672:2688   */\n      swap2\n        /* \"#utility.yul\":2320:2734   */\n      swap1\n      pop\n      jump\t// out\n\n    auxdata: 0xa26469706673582212205ed76ee4307793b954f5bcfec63f69dd21af8f60f8836db3b1a11e64826e94b064736f6c63430008150033\n}\n",
				"bytecode": {
					"linkReferences": {},
					"object": "608060405234801561000f575f80fd5b5060405161073d38038061073d83398101604081905261002e916100be565b816001600160a01b03811661005c57604051631e4fbdf760e01b81525f600482015260240160405180910390fd5b6100658161006f565b50600155506100f5565b5f80546001600160a01b038381166001600160a01b0319831681178455604051919092169283917f8be0079c531659141344cd1fd0a4f28419497f9722a3daafe3b4186f6b6457e09190a35050565b5f80604083850312156100cf575f80fd5b82516001600160a01b03811681146100e5575f80fd5b6020939093015192949293505050565b61063b806101025f395ff3fe608060405260043610610079575f3560e01c80639fc9e0221161004c5780639fc9e0221461010a578063a5cad08a14610129578063a89a9ffb1461013c578063f2fde38b1461015b575f80fd5b80635c97404a1461007d578063715018a6146100a55780638da5cb5b146100bb57806396980815146100eb575b5f80fd5b348015610088575f80fd5b5061009260015481565b6040519081526020015b60405180910390f35b3480156100b0575f80fd5b506100b961017a565b005b3480156100c6575f80fd5b505f546001600160a01b03165b6040516001600160a01b03909116815260200161009c565b3480156100f6575f80fd5b506100d36101053660046104e1565b61018d565b348015610115575f80fd5b506100b961012436600461058c565b6101bd565b6100b96101373660046104e1565b6101ca565b348015610147575f80fd5b506100b96101563660046105b7565b610338565b348015610166575f80fd5b506100b96101753660046105b7565b610415565b610182610452565b61018b5f61047e565b565b5f60028260405161019e91906105d9565b908152604051908190036020019020546001600160a01b031692915050565b6101c5610452565b600155565b6001543410156102215760405162461bcd60e51b815260206004820181905260248201527f45746865722076616c7565206973206c6f776572207468616e2070726963652e60448201526064015b60405180910390fd5b5f6001600160a01b031660028260405161023b91906105d9565b908152604051908190036020019020546001600160a01b0316146102b65760405162461bcd60e51b815260206004820152602c60248201527f446f6d61696e20686173206265656e2070757263686173656420627920736f6d60448201526b32b7b732903132b337b9329760a11b6064820152608401610218565b336002826040516102c791906105d9565b90815260405190819003602001812080546001600160a01b03939093166001600160a01b03199093169290921790915542906103049083906105d9565b6040519081900381209033907fbfb26b4c07b3769abe71d609ea3d0a46f7e3bf9035e12400b572e76e843ee2cf905f90a450565b610340610452565b60405147905f9081906001600160a01b0385169084908381818185875af1925050503d805f811461038c576040519150601f19603f3d011682016040523d82523d5f602084013e610391565b606091505b5091509150816103da5760405162461bcd60e51b81526020600482015260146024820152732330b4b632b2103a379039b2b7321022ba3432b960611b6044820152606401610218565b60405183906001600160a01b038616907f88f6de14cf08cddfb4408f10758b118c28fc89b6e294e40a62286f8672599de8905f90a350505050565b61041d610452565b6001600160a01b03811661044657604051631e4fbdf760e01b81525f6004820152602401610218565b61044f8161047e565b50565b5f546001600160a01b0316331461018b5760405163118cdaa760e01b8152336004820152602401610218565b5f80546001600160a01b038381166001600160a01b0319831681178455604051919092169283917f8be0079c531659141344cd1fd0a4f28419497f9722a3daafe3b4186f6b6457e09190a35050565b634e487b7160e01b5f52604160045260245ffd5b5f602082840312156104f1575f80fd5b813567ffffffffffffffff80821115610508575f80fd5b818401915084601f83011261051b575f80fd5b81358181111561052d5761052d6104cd565b604051601f8201601f19908116603f01168101908382118183101715610555576105556104cd565b8160405282815287602084870101111561056d575f80fd5b826020860160208301375f928101602001929092525095945050505050565b5f6020828403121561059c575f80fd5b5035919050565b6001600160a01b038116811461044f575f80fd5b5f602082840312156105c7575f80fd5b81356105d2816105a3565b9392505050565b5f82515f5b818110156105f857602081860181015185830152016105de565b505f92019182525091905056fea26469706673582212205ed76ee4307793b954f5bcfec63f69dd21af8f60f8836db3b1a11e64826e94b064736f6c63430008150033",
					"opcodes": "PUSH1 0x80 PUSH1 0x40 MSTORE CALLVALUE DUP1 ISZERO PUSH2 0xF JUMPI PUSH0 DUP1 REVERT JUMPDEST POP PUSH1 0x40 MLOAD PUSH2 0x73D CODESIZE SUB DUP1 PUSH2 0x73D DUP4 CODECOPY DUP2 ADD PUSH1 0x40 DUP2 SWAP1 MSTORE PUSH2 0x2E SWAP2 PUSH2 0xBE JUMP JUMPDEST DUP2 PUSH1 0x1 PUSH1 0x1 PUSH1 0xA0 SHL SUB DUP2 AND PUSH2 0x5C JUMPI PUSH1 0x40 MLOAD PUSH4 0x1E4FBDF7 PUSH1 0xE0 SHL DUP2 MSTORE PUSH0 PUSH1 0x4 DUP3 ADD MSTORE PUSH1 0x24 ADD PUSH1 0x40 MLOAD DUP1 SWAP2 SUB SWAP1 REVERT JUMPDEST PUSH2 0x65 DUP2 PUSH2 0x6F JUMP JUMPDEST POP PUSH1 0x1 SSTORE POP PUSH2 0xF5 JUMP JUMPDEST PUSH0 DUP1 SLOAD PUSH1 0x1 PUSH1 0x1 PUSH1 0xA0 SHL SUB DUP4 DUP2 AND PUSH1 0x1 PUSH1 0x1 PUSH1 0xA0 SHL SUB NOT DUP4 AND DUP2 OR DUP5 SSTORE PUSH1 0x40 MLOAD SWAP2 SWAP1 SWAP3 AND SWAP3 DUP4 SWAP2 PUSH32 0x8BE0079C531659141344CD1FD0A4F28419497F9722A3DAAFE3B4186F6B6457E0 SWAP2 SWAP1 LOG3 POP POP JUMP JUMPDEST PUSH0 DUP1 PUSH1 0x40 DUP4 DUP6 SUB SLT ISZERO PUSH2 0xCF JUMPI PUSH0 DUP1 REVERT JUMPDEST DUP3 MLOAD PUSH1 0x1 PUSH1 0x1 PUSH1 0xA0 SHL SUB DUP2 AND DUP2 EQ PUSH2 0xE5 JUMPI PUSH0 DUP1 REVERT JUMPDEST PUSH1 0x20 SWAP4 SWAP1 SWAP4 ADD MLOAD SWAP3 SWAP5 SWAP3 SWAP4 POP POP POP JUMP JUMPDEST PUSH2 0x63B DUP1 PUSH2 0x102 PUSH0 CODECOPY PUSH0 RETURN INVALID PUSH1 0x80 PUSH1 0x40 MSTORE PUSH1 0x4 CALLDATASIZE LT PUSH2 0x79 JUMPI PUSH0 CALLDATALOAD PUSH1 0xE0 SHR DUP1 PUSH4 0x9FC9E022 GT PUSH2 0x4C JUMPI DUP1 PUSH4 0x9FC9E022 EQ PUSH2 0x10A JUMPI DUP1 PUSH4 0xA5CAD08A EQ PUSH2 0x129 JUMPI DUP1 PUSH4 0xA89A9FFB EQ PUSH2 0x13C JUMPI DUP1 PUSH4 0xF2FDE38B EQ PUSH2 0x15B JUMPI PUSH0 DUP1 REVERT JUMPDEST DUP1 PUSH4 0x5C97404A EQ PUSH2 0x7D JUMPI DUP1 PUSH4 0x715018A6 EQ PUSH2 0xA5 JUMPI DUP1 PUSH4 0x8DA5CB5B EQ PUSH2 0xBB JUMPI DUP1 PUSH4 0x96980815 EQ PUSH2 0xEB JUMPI JUMPDEST PUSH0 DUP1 REVERT JUMPDEST CALLVALUE DUP1 ISZERO PUSH2 0x88 JUMPI PUSH0 DUP1 REVERT JUMPDEST POP PUSH2 0x92 PUSH1 0x1 SLOAD DUP2 JUMP JUMPDEST PUSH1 0x40 MLOAD SWAP1 DUP2 MSTORE PUSH1 0x20 ADD JUMPDEST PUSH1 0x40 MLOAD DUP1 SWAP2 SUB SWAP1 RETURN JUMPDEST CALLVALUE DUP1 ISZERO PUSH2 0xB0 JUMPI PUSH0 DUP1 REVERT JUMPDEST POP PUSH2 0xB9 PUSH2 0x17A JUMP JUMPDEST STOP JUMPDEST CALLVALUE DUP1 ISZERO PUSH2 0xC6 JUMPI PUSH0 DUP1 REVERT JUMPDEST POP PUSH0 SLOAD PUSH1 0x1 PUSH1 0x1 PUSH1 0xA0 SHL SUB AND JUMPDEST PUSH1 0x40 MLOAD PUSH1 0x1 PUSH1 0x1 PUSH1 0xA0 SHL SUB SWAP1 SWAP2 AND DUP2 MSTORE PUSH1 0x20 ADD PUSH2 0x9C JUMP JUMPDEST CALLVALUE DUP1 ISZERO PUSH2 0xF6 JUMPI PUSH0 DUP1 REVERT JUMPDEST POP PUSH2 0xD3 PUSH2 0x105 CALLDATASIZE PUSH1 0x4 PUSH2 0x4E1 JUMP JUMPDEST PUSH2 0x18D JUMP JUMPDEST CALLVALUE DUP1 ISZERO PUSH2 0x115 JUMPI PUSH0 DUP1 REVERT JUMPDEST POP PUSH2 0xB9 PUSH2 0x124 CALLDATASIZE PUSH1 0x4 PUSH2 0x58C JUMP JUMPDEST PUSH2 0x1BD JUMP JUMPDEST PUSH2 0xB9 PUSH2 0x137 CALLDATASIZE PUSH1 0x4 PUSH2 0x4E1 JUMP JUMPDEST PUSH2 0x1CA JUMP JUMPDEST CALLVALUE DUP1 ISZERO PUSH2 0x147 JUMPI PUSH0 DUP1 REVERT JUMPDEST POP PUSH2 0xB9 PUSH2 0x156 CALLDATASIZE PUSH1 0x4 PUSH2 0x5B7 JUMP JUMPDEST PUSH2 0x338 JUMP JUMPDEST CALLVALUE DUP1 ISZERO PUSH2 0x166 JUMPI PUSH0 DUP1 REVERT JUMPDEST POP PUSH2 0xB9 PUSH2 0x175 CALLDATASIZE PUSH1 0x4 PUSH2 0x5B7 JUMP JUMPDEST PUSH2 0x415 JUMP JUMPDEST PUSH2 0x182 PUSH2 0x452 JUMP JUMPDEST PUSH2 0x18B PUSH0 PUSH2 0x47E JUMP JUMPDEST JUMP JUMPDEST PUSH0 PUSH1 0x2 DUP3 PUSH1 0x40 MLOAD PUSH2 0x19E SWAP2 SWAP1 PUSH2 0x5D9 JUMP JUMPDEST SWAP1 DUP2 MSTORE PUSH1 0x40 MLOAD SWAP1 DUP2 SWAP1 SUB PUSH1 0x20 ADD SWAP1 KECCAK256 SLOAD PUSH1 0x1 PUSH1 0x1 PUSH1 0xA0 SHL SUB AND SWAP3 SWAP2 POP POP JUMP JUMPDEST PUSH2 0x1C5 PUSH2 0x452 JUMP JUMPDEST PUSH1 0x1 SSTORE JUMP JUMPDEST PUSH1 0x1 SLOAD CALLVALUE LT ISZERO PUSH2 0x221 JUMPI PUSH1 0x40 MLOAD PUSH3 0x461BCD PUSH1 0xE5 SHL DUP2 MSTORE PUSH1 0x20 PUSH1 0x4 DUP3 ADD DUP2 SWAP1 MSTORE PUSH1 0x24 DUP3 ADD MSTORE PUSH32 0x45746865722076616C7565206973206C6F776572207468616E2070726963652E PUSH1 0x44 DUP3 ADD MSTORE PUSH1 0x64 ADD JUMPDEST PUSH1 0x40 MLOAD DUP1 SWAP2 SUB SWAP1 REVERT JUMPDEST PUSH0 PUSH1 0x1 PUSH1 0x1 PUSH1 0xA0 SHL SUB AND PUSH1 0x2 DUP3 PUSH1 0x40 MLOAD PUSH2 0x23B SWAP2 SWAP1 PUSH2 0x5D9 JUMP JUMPDEST SWAP1 DUP2 MSTORE PUSH1 0x40 MLOAD SWAP1 DUP2 SWAP1 SUB PUSH1 0x20 ADD SWAP1 KECCAK256 SLOAD PUSH1 0x1 PUSH1 0x1 PUSH1 0xA0 SHL SUB AND EQ PUSH2 0x2B6 JUMPI PUSH1 0x40 MLOAD PUSH3 0x461BCD PUSH1 0xE5 SHL DUP2 MSTORE PUSH1 0x20 PUSH1 0x4 DUP3 ADD MSTORE PUSH1 0x2C PUSH1 0x24 DUP3 ADD MSTORE PUSH32 0x446F6D61696E20686173206265656E2070757263686173656420627920736F6D PUSH1 0x44 DUP3 ADD MSTORE PUSH12 0x32B7B732903132B337B93297 PUSH1 0xA1 SHL PUSH1 0x64 DUP3 ADD MSTORE PUSH1 0x84 ADD PUSH2 0x218 JUMP JUMPDEST CALLER PUSH1 0x2 DUP3 PUSH1 0x40 MLOAD PUSH2 0x2C7 SWAP2 SWAP1 PUSH2 0x5D9 JUMP JUMPDEST SWAP1 DUP2 MSTORE PUSH1 0x40 MLOAD SWAP1 DUP2 SWAP1 SUB PUSH1 0x20 ADD DUP2 KECCAK256 DUP1 SLOAD PUSH1 0x1 PUSH1 0x1 PUSH1 0xA0 SHL SUB SWAP4 SWAP1 SWAP4 AND PUSH1 0x1 PUSH1 0x1 PUSH1 0xA0 SHL SUB NOT SWAP1 SWAP4 AND SWAP3 SWAP1 SWAP3 OR SWAP1 SWAP2 SSTORE TIMESTAMP SWAP1 PUSH2 0x304 SWAP1 DUP4 SWAP1 PUSH2 0x5D9 JUMP JUMPDEST PUSH1 0x40 MLOAD SWAP1 DUP2 SWAP1 SUB DUP2 KECCAK256 SWAP1 CALLER SWAP1 PUSH32 0xBFB26B4C07B3769ABE71D609EA3D0A46F7E3BF9035E12400B572E76E843EE2CF SWAP1 PUSH0 SWAP1 LOG4 POP JUMP JUMPDEST PUSH2 0x340 PUSH2 0x452 JUMP JUMPDEST PUSH1 0x40 MLOAD SELFBALANCE SWAP1 PUSH0 SWAP1 DUP2 SWAP1 PUSH1 0x1 PUSH1 0x1 PUSH1 0xA0 SHL SUB DUP6 AND SWAP1 DUP5 SWAP1 DUP4 DUP2 DUP2 DUP2 DUP6 DUP8 GAS CALL SWAP3 POP POP POP RETURNDATASIZE DUP1 PUSH0 DUP2 EQ PUSH2 0x38C JUMPI PUSH1 0x40 MLOAD SWAP2 POP PUSH1 0x1F NOT PUSH1 0x3F RETURNDATASIZE ADD AND DUP3 ADD PUSH1 0x40 MSTORE RETURNDATASIZE DUP3 MSTORE RETURNDATASIZE PUSH0 PUSH1 0x20 DUP5 ADD RETURNDATACOPY PUSH2 0x391 JUMP JUMPDEST PUSH1 0x60 SWAP2 POP JUMPDEST POP SWAP2 POP SWAP2 POP DUP2 PUSH2 0x3DA JUMPI PUSH1 0x40 MLOAD PUSH3 0x461BCD PUSH1 0xE5 SHL DUP2 MSTORE PUSH1 0x20 PUSH1 0x4 DUP3 ADD MSTORE PUSH1 0x14 PUSH1 0x24 DUP3 ADD MSTORE PUSH20 0x2330B4B632B2103A379039B2B7321022BA3432B9 PUSH1 0x61 SHL PUSH1 0x44 DUP3 ADD MSTORE PUSH1 0x64 ADD PUSH2 0x218 JUMP JUMPDEST PUSH1 0x40 MLOAD DUP4 SWAP1 PUSH1 0x1 PUSH1 0x1 PUSH1 0xA0 SHL SUB DUP7 AND SWAP1 PUSH32 0x88F6DE14CF08CDDFB4408F10758B118C28FC89B6E294E40A62286F8672599DE8 SWAP1 PUSH0 SWAP1 LOG3 POP POP POP POP JUMP JUMPDEST PUSH2 0x41D PUSH2 0x452 JUMP JUMPDEST PUSH1 0x1 PUSH1 0x1 PUSH1 0xA0 SHL SUB DUP2 AND PUSH2 0x446 JUMPI PUSH1 0x40 MLOAD PUSH4 0x1E4FBDF7 PUSH1 0xE0 SHL DUP2 MSTORE PUSH0 PUSH1 0x4 DUP3 ADD MSTORE PUSH1 0x24 ADD PUSH2 0x218 JUMP JUMPDEST PUSH2 0x44F DUP2 PUSH2 0x47E JUMP JUMPDEST POP JUMP JUMPDEST PUSH0 SLOAD PUSH1 0x1 PUSH1 0x1 PUSH1 0xA0 SHL SUB AND CALLER EQ PUSH2 0x18B JUMPI PUSH1 0x40 MLOAD PUSH4 0x118CDAA7 PUSH1 0xE0 SHL DUP2 MSTORE CALLER PUSH1 0x4 DUP3 ADD MSTORE PUSH1 0x24 ADD PUSH2 0x218 JUMP JUMPDEST PUSH0 DUP1 SLOAD PUSH1 0x1 PUSH1 0x1 PUSH1 0xA0 SHL SUB DUP4 DUP2 AND PUSH1 0x1 PUSH1 0x1 PUSH1 0xA0 SHL SUB NOT DUP4 AND DUP2 OR DUP5 SSTORE PUSH1 0x40 MLOAD SWAP2 SWAP1 SWAP3 AND SWAP3 DUP4 SWAP2 PUSH32 0x8BE0079C531659141344CD1FD0A4F28419497F9722A3DAAFE3B4186F6B6457E0 SWAP2 SWAP1 LOG3 POP POP JUMP JUMPDEST PUSH4 0x4E487B71 PUSH1 0xE0 SHL PUSH0 MSTORE PUSH1 0x41 PUSH1 0x4 MSTORE PUSH1 0x24 PUSH0 REVERT JUMPDEST PUSH0 PUSH1 0x20 DUP3 DUP5 SUB SLT ISZERO PUSH2 0x4F1 JUMPI PUSH0 DUP1 REVERT JUMPDEST DUP2 CALLDATALOAD PUSH8 0xFFFFFFFFFFFFFFFF DUP1 DUP3 GT ISZERO PUSH2 0x508 JUMPI PUSH0 DUP1 REVERT JUMPDEST DUP2 DUP5 ADD SWAP2 POP DUP5 PUSH1 0x1F DUP4 ADD SLT PUSH2 0x51B JUMPI PUSH0 DUP1 REVERT JUMPDEST DUP2 CALLDATALOAD DUP2 DUP2 GT ISZERO PUSH2 0x52D JUMPI PUSH2 0x52D PUSH2 0x4CD JUMP JUMPDEST PUSH1 0x40 MLOAD PUSH1 0x1F DUP3 ADD PUSH1 0x1F NOT SWAP1 DUP2 AND PUSH1 0x3F ADD AND DUP2 ADD SWAP1 DUP4 DUP3 GT DUP2 DUP4 LT OR ISZERO PUSH2 0x555 JUMPI PUSH2 0x555 PUSH2 0x4CD JUMP JUMPDEST DUP2 PUSH1 0x40 MSTORE DUP3 DUP2 MSTORE DUP8 PUSH1 0x20 DUP5 DUP8 ADD ADD GT ISZERO PUSH2 0x56D JUMPI PUSH0 DUP1 REVERT JUMPDEST DUP3 PUSH1 0x20 DUP7 ADD PUSH1 0x20 DUP4 ADD CALLDATACOPY PUSH0 SWAP3 DUP2 ADD PUSH1 0x20 ADD SWAP3 SWAP1 SWAP3 MSTORE POP SWAP6 SWAP5 POP POP POP POP POP JUMP JUMPDEST PUSH0 PUSH1 0x20 DUP3 DUP5 SUB SLT ISZERO PUSH2 0x59C JUMPI PUSH0 DUP1 REVERT JUMPDEST POP CALLDATALOAD SWAP2 SWAP1 POP JUMP JUMPDEST PUSH1 0x1 PUSH1 0x1 PUSH1 0xA0 SHL SUB DUP2 AND DUP2 EQ PUSH2 0x44F JUMPI PUSH0 DUP1 REVERT JUMPDEST PUSH0 PUSH1 0x20 DUP3 DUP5 SUB SLT ISZERO PUSH2 0x5C7 JUMPI PUSH0 DUP1 REVERT JUMPDEST DUP2 CALLDATALOAD PUSH2 0x5D2 DUP2 PUSH2 0x5A3 JUMP JUMPDEST SWAP4 SWAP3 POP POP POP JUMP JUMPDEST PUSH0 DUP3 MLOAD PUSH0 JUMPDEST DUP2 DUP2 LT ISZERO PUSH2 0x5F8 JUMPI PUSH1 0x20 DUP2 DUP7 ADD DUP2 ADD MLOAD DUP6 DUP4 ADD MSTORE ADD PUSH2 0x5DE JUMP JUMPDEST POP PUSH0 SWAP3 ADD SWAP2 DUP3 MSTORE POP SWAP2 SWAP1 POP JUMP INVALID LOG2 PUSH5 0x6970667358 0x22 SLT KECCAK256 0x5E 0xD7 PUSH15 0xE4307793B954F5BCFEC63F69DD21AF DUP16 PUSH1 0xF8 DUP4 PUSH14 0xB3B1A11E64826E94B064736F6C63 NUMBER STOP ADDMOD ISZERO STOP CALLER "
				},
				"gasEstimates": {
					"creation": {
						"codeDepositCost": "319000",
						"executionCost": "infinite",
						"totalCost": "infinite"
					},
					"external": {
						"domainPrice()": "2284",
						"getDomainController(string)": "infinite",
						"owner()": "2363",
						"registerDomain(string)": "infinite",
						"renounceOwnership()": "infinite",
						"setDomainPrice(uint256)": "24485",
						"transferOwnership(address)": "infinite",
						"withdrawAllEther(address)": "infinite"
					}
				},
				"methodIdentifiers": {
					"domainPrice()": "5c97404a",
					"getDomainController(string)": "96980815",
					"owner()": "8da5cb5b",
					"registerDomain(string)": "a5cad08a",
					"renounceOwnership()": "715018a6",
					"setDomainPrice(uint256)": "9fc9e022",
					"transferOwnership(address)": "f2fde38b",
					"withdrawAllEther(address)": "a89a9ffb"
				}
			},
			"storageLayout": {
				"storage": [
					{
						"astId": 8,
						"contract": "contracts/RegistrarController.sol:RegistrarController",
						"label": "_owner",
						"offset": 0,
						"slot": "0",
						"type": "t_address"
					},
					{
						"astId": 189,
						"contract": "contracts/RegistrarController.sol:RegistrarController",
						"label": "domainPrice",
						"offset": 0,
						"slot": "1",
						"type": "t_uint256"
					},
					{
						"astId": 193,
						"contract": "contracts/RegistrarController.sol:RegistrarController",
						"label": "domainRecords",
						"offset": 0,
						"slot": "2",
						"type": "t_mapping(t_string_memory_ptr,t_address)"
					}
				],
				"types": {
					"t_address": {
						"encoding": "inplace",
						"label": "address",
						"numberOfBytes": "20"
					},
					"t_mapping(t_string_memory_ptr,t_address)": {
						"encoding": "mapping",
						"key": "t_string_memory_ptr",
						"label": "mapping(string => address)",
						"numberOfBytes": "32",
						"value": "t_address"
					},
					"t_string_memory_ptr": {
						"encoding": "bytes",
						"label": "string",
						"numberOfBytes": "32"
					},
					"t_uint256": {
						"encoding": "inplace",
						"label": "uint256",
						"numberOfBytes": "32"
					}
				}
			},
			"userdoc": {
				"kind": "user",
				"methods": {
					"getDomainController(string)": {
						"notice": "Return controller of domain"
					},
					"registerDomain(string)": {
						"notice": "Register new domain"
					},
					"setDomainPrice(uint256)": {
						"notice": "Set new price for domains (Only for owner)"
					},
					"withdrawAllEther(address)": {
						"notice": "Withdraws all ethers from contract to owner"
					}
				},
				"version": 1
			}
		}
	}
}